:020000040800F2
:10000000080900204501000841180008CF10000829
:10001000E3170008370B000847270008000000001E
:100020000000000000000000000000008D2000081B
:10003000D10D000800000000771F0008ED21000826
:100040005F0100085F0100085F0100085F01000810
:100050005F0100085F0100085F0100085F01000800
:100060005F0100085F0100085F0100085F010008F0
:100070005F0100085F0100085F0100085F010008E0
:100080005F0100085F0100085F0100085F010008D0
:100090005F0100085F0100085F010008D50D00083E
:1000A0005F0100085F0100085F0100085F010008B0
:1000B000512200085F0100085F0100085F0100088D
:1000C0005F0100085F0100085F0100085F01000890
:1000D0005F010008152400085F0100085F010008A7
:1000E0005F0100085F0100085F0100085F01000870
:1000F0005F0100085F0100085F0100085F01000860
:100100005F0100085F0100085F0100085F0100084F
:100110005F0100085F0100085F0100085F0100083F
:100120005F0100085F0100085F0100085F0100082F
:10013000DFF80CD000F08CFC00480047B94B0008F9
:10014000080900200648804706480047FEE7FEE70A
:10015000FEE7FEE7FEE7FEE7FEE7FEE7FEE7FEE777
:10016000F1210008310100082DE9F0410024061BAF
:10017000254671F1000605DA01240027D0EB0700BF
:1001800067EB0101161E73F1000605DA0027D2EBBA
:100190000702012567EB030300F02CFB86460E46A1
:1001A00017469C46AC4204D00025D0EB050E65EB0B
:1001B000010624B10020D2EB000760EB030C70466F
:1001C00031463A466346BDE8F081D2B201E000F81C
:1001D000012B491EFBD270470022F6E710B51346EB
:1001E0000A4604461946FFF7F0FF204610BD30B519
:1001F00004460020034600E05B1C934203D2E05C0F
:10020000CD5C401BF8D030BDF0B480EA0102D40FC1
:100210004200B2EB410F02D20246084611464A00A4
:1002200042D0C30DDDB2C1F3C752AD1A202D35DA6D
:10023000C1F3160141F4000204B15242C5F1200697
:1002400002FA06F12A411044B3EBD05F23D0C4B1C7
:10025000012DA0EBC35009DCF0BC4FF0004202EAD4
:10026000C352DBB200F5000000F01FBB400000F1FC
:10027000807000EBC350A0F1807040EAD17049005B
:1002800009E0490841EAC071A0EBC35000F5000045
:10029000400800EBC350F0BC00F0FEBA61420122FE
:1002A00002EB4101001BF6E7F0BC704781F0004112
:1002B000AAE780F00040A7E780EA010210B502F04B
:1002C0000043400022D04A001FD0010E01EB126112
:1002D000C0F35600C2F3560240F4000042F400029C
:1002E000A0FB022000047F39140400D0401C50EA17
:1002F000124001D44000491EC2B20C0604EBD010DB
:10030000401C4008802A02D003E0002010BD20F0ED
:100310000100002900DA0020184310BD30B480EA43
:10032000010202F0004530F0004221F0004013D0FD
:1003300090B1C30DD40DC2F31601C0F31600E41A38
:1003400041F4000140F400027D34914201D3641C69
:1003500000E04900002C02DA30BC002070474FF466
:1003600000000023914201D3891A034340084FEA59
:100370004101F7D151B1914202D14FF0004105E066
:1003800002D24FF0010101E06FF0010103EBC45014
:10039000284430BC00F080BA2DE9FE4F804681EA47
:1003A0000300C00F0C46009021F0004123F00045EF
:1003B000B8EB0200A94105D24046214690461C46B2
:1003C0000B46024623F00040104347D0270DC7F3E9
:1003D0000A00C3F30A510290401A019040286BDAD8
:1003E000C3F3130040F4801B0098924620B1002311
:1003F000D2EB030A63EB0B0B01985946C0F14002A4
:10040000504600F028FA06460D4650465946019AD5
:1004100000F030FA10EB08006141002487EA115225
:1004200084EAE7731A4340D0009A62B3019A012A22
:100430004FEA075215DC001B61EB02014FF000424E
:1004400002EA0752CDE90042001C41F58011324614
:100450002B4600F067FA03B0BDE8F08F4046214616
:10046000F9E7001B61EB0201001C41F58013001845
:100470005B412018A2F5001747EB030140EAD57055
:10048000B6196D4111E06D084FEA360645EAC075B0
:100490004FEA0752001B61EB0201001C41F580117D
:1004A00049084FEA30000019514132462B4603B04B
:1004B000BDE8F04F00F027BA009801224000002369
:1004C000D0EB020263EBE073009821464FEAE07440
:1004D000B8EB000061EB0401E9E783F000435BE760
:1004E00081F0004158E72DE9FE4F81EA030404F052
:1004F000004421F0004100944FF0000B23F0004332
:1005000050EA01045ED052EA03045BD0C3F30A54FC
:10051000C1F30A552C44A4F2F3340194A0FB025415
:10052000C1F3130141F48011C3F3130343F48013A7
:1005300001FB024400FB034E840A970A44EA8154FB
:1005400047EA8357A4FB076802958D0A05FB0785D8
:100550004FEA932C04FB0C542705029D4FEA0658E2
:1005600047EA1637B5EB08056EEB070C870E920EBF
:1005700047EA811742EA8312A7FB0201B6EB0B019F
:1005800064EB00042B0D43EA0C335E1844EB1C5063
:10059000DA465146E7FB0201C5F313044FEA0B3379
:1005A00043EA14534FEA0432019C43EA0603A4F1E0
:1005B0000C040294009CCDE900B400F0B3F903B040
:1005C000BDE8F08F00200146F9E72DE9F04D81EA02
:1005D000030404F0004B21F0004514464FF0000ADC
:1005E00023F0004150EA050220D054EA01021DD058
:1005F000C5F30A570246C5F31303C1F31300C1F351
:100600000A5640F4801543F48013A7EB0608101B2C
:10061000D64608F2FD3873EB050002D308F1010855
:1006200001E092185B41B8F1000F03DA00200146A7
:10063000BDE8F08D00204FF48011064684460EE0A0
:10064000171B73EB050705D3121B63EB050306436A
:100650004CEA010C49084FEA300092185B4150EA1D
:100660000107EDD152EA030012D082EA040083EAC6
:100670000501084305D0101BAB4106D2012200231F
:1006800006E000224FF0004302E06FF00102531039
:100690001AEB06004CEB085110EB0A0041EB0B0182
:1006A000BDE8F04D00F02FB9C10F80EAE0700844BA
:1006B000CA079623002100F0F8B8962300221146BD
:1006C00000F0F3B80EB5C10F80EAE0700844CA0725
:1006D000002140F233438DE80E000A460B4600F03D
:1006E00021F903B000BD00F0004220F00040C10D30
:1006F000C0F3160040F400007F2901DA00207047A3
:10070000962903DCC1F19601C84001E09639884082
:10071000002AF4D04042704720F00040C10DC0F3E1
:10072000160040F400007F2901DA00207047962966
:1007300003DCC1F19601C840704796398840704784
:1007400000F0004230F000400AD0C10D01F56071A8
:10075000C0F3160042EA0151C20840071143704736
:1007600000200146704701F0004330B421F0004101
:1007700050EA010206D00A0DA2F56072C1F313011E
:10078000002A02DC30BC00207047440F44EAC10458
:10079000C100E01830BC00EBC25000F07DB8000092
:1007A000002801DBC0F10040002901DBC1F100415C
:1007B00081427047002801DBC0F10040002901DBC5
:1007C000C1F100418842704730B50B460146002018
:1007D0002022012409E021FA02F59D4205D303FA03
:1007E00002F5491B04FA02F52844151EA2F1010284
:1007F000F1DC30BD2DE9F05F0546002092469B46B6
:1008000088460646814640241BE028464146474626
:10081000224600F02FF953465A46C01A914110D390
:1008200011461846224600F016F82D1A67EB01080B
:100830004F4622460120002100F00DF817EB000979
:100840004E41201EA4F10104DFDC484631462A4611
:100850004346BDE8F09F202A04DB203A00FA02F16B
:10086000002070479140C2F1200320FA03F319439E
:1008700090407047202A06DBCB17203A41FA02F05D
:1008800043EAE07306E041FA02F3D040C2F12002ED
:1008900091400843194670470029A8BF7047401C83
:1008A000490008BF20F00100704710B4B0FA80FC86
:1008B00000FA0CF050EA010404BF10BC704749B1C3
:1008C000CCF1200421FA04F411FA0CF118BF012133
:1008D00021430843A3EB0C01CB1D4FEA00614FEA13
:1008E000102042BF002010BC704700EBC3501044E2
:1008F0000029A4BF10BC7047401C490008BF20F06D
:10090000010010BC704710B5141E73F1000408DA22
:10091000401C41F1000192185B411A4301D120F0C3
:10092000010010BD2DE9F04D92469B4611B1B1FA80
:1009300081F202E0B0FA80F220329046FFF78BFF9E
:1009400004460F4640EA0A0041EA0B0153465A4664
:10095000084313D0114653EA010019D0C8F14002F0
:10096000504600F087F805460E4650465946424626
:10097000FFF771FF084305D0012004E02046394607
:10098000BDE8F08D0020054346EAE0762C4337436E
:100990000A986305E40AA0EB08000022FD0A44EA75
:1009A00047540A3002D500200146E9E70105101935
:1009B0006941DDE9084500196941BDE8F04DA2E74C
:1009C00070B521F0004303430CD0C1F30A55002455
:1009D000D5EB040564EB0403D617AD1AB34102DB73
:1009E0000020014670BD201841EB025170BDC1F3DB
:1009F0000A52C1F3130140F2FF3341F480119A42CD
:100A000002DA00200146704740F233439A42A2F2D4
:100A1000334202DC524200F02DB8FFF71CBF000049
:100A200030B5041E71F1000404DB4FF00044404275
:100A300064EB0101141E73F1000405DB1C464FF04A
:100A40000043524263EB0403994208BF904230BD19
:100A5000064C074D06E0E06840F0010394E807000B
:100A600098471034AC42F6D3FFF766FBC08D000800
:100A7000E08D0008202A04DB203A21FA02F0002150
:100A8000704721FA02F3D040C2F12002914008439E
:100A9000194670472DE9F04D00231A461B1A8A416A
:100AA00003DB00200146BDE8F08DC1F30A52C1F31B
:100AB000130141F480154FF0000BD10702D100184B
:100AC0006D41521E0027044640F2FF11384601EBEB
:100AD000620A3E468046024600204FF48011FFF72E
:100AE000C9FFC2197141BB1846EB0100B4EB030CFE
:100AF00075EB000C04D3E41A65EB000517460E46AF
:100B0000241908F101006D4180463428E3DDF9190C
:100B100046EB0600091BA84103D24FF0FF321346F3
:100B200001E0002213461BEB070046EB0A51BDE82B
:100B3000F04DFFF7E8BE00BFFEE700001FB5012142
:100B4000042001F029FA0121084601F025FA2820A5
:100B50008DF80F002020ADF80C0003208DF80E005A
:100B600003A9144800F0D2F90521002000F0AEF9E5
:100B70002020019001208DF80A0000208DF8080047
:100B80000C208DF8090001A800F056F94FF4A06080
:100B900000F090FE17208DF8000001208DF8030072
:100BA00002208DF801008DF80200684600F04AFE30
:100BB0001FBD0000000801402DE9F05F00F0BEF805
:100BC00000F05EF8CC2000F0D1F8442000F0CEF820
:100BD00000F0B4F800F054F8CC2000F0C7F8BE20C4
:100BE00000F0C4F800F098F8834600F095F88246CB
:100BF0004FEA0A2004B244EA0B04002C0DDAE04369
:100C0000401CFFF75FFD074600220B4BFFF76BFC14
:100C10000546FFF7A8FD81460BE02046FFF752FD91
:100C200007460022044BFFF75EFC0546FFF79BFDDD
:100C300081464846BDE8F09F0000B03F08B54FF43C
:100C40000060ADF8000048208DF8030069460248B6
:100C500000F05CF908BD00000008014008B54FF441
:100C60000060ADF8000010208DF8030003208DF81F
:100C700002006946014800F049F908BD000801403A
:100C800010B50024FFF7DAFF04E0601CC4B20120B5
:100C900002F02EFE4FF400610F4800F00BFA08B18D
:100CA000642CF2DB642C01DB012010BD002404E085
:100CB000601CC4B2012002F01BFE4FF40061064824
:100CC00000F0F8F908B9F02CF2DBF02C01DB012080
:100CD000EBE70020E9E700000008014010B5FFF74E
:100CE000BDFF4FF400610B4800F0EDF90A2002F05F
:100CF000FFFDFFF7A3FF4FF40061064800F0DAF9AB
:100D0000012801D1012400E000242D2002F0F0FD93
:100D1000204610BD0008014070B50026002408E000
:100D2000FFF7DCFF054605FA04F03043C6B2601C4D
:100D3000C4B2082CF4DB304670BD000010B5FFF7DC
:100D40008DFF4FF40061084800F0BDF940F2EE203D
:100D500002F0CEFD4FF40061034800F0B6F90F2019
:100D600002F0C6FD10BD00000008014070B5044649
:100D7000FFF774FF002526E004F00106641086B139
:100D80004FF40061114800F09EF9082002F0B0FD18
:100D90004FF400610D4800F098F93A2002F0A8FDE8
:100DA0000FE04FF40061094800F08DF9462002F091
:100DB0009FFD4FF40061054800F087F9022002F022
:100DC00097FD681CC5B2082DD6DB70BD0008014038
:100DD0007047000010B5202000F01AF801280CD14F
:100DE0002021064800F066F920B905480088401C1B
:100DF00003490880202000F005F810BD00080140DC
:100E00006E00002001490860704700001404014092
:100E1000014600200022074B1B6803EA0102054B34
:100E200014331B680B4013B10AB1012000E000200D
:100E30007047000000040140002123498279002A04
:100E40003AD00A46126803689A430B461A600A1D94
:100E5000126803689A430B1D1A60027911440A68EC
:100E600003681A430A60184A0832126803689A43F2
:100E7000154B08331A601A1D126803689A43124B07
:100E80000C331A604279102A0ED11A1F12680368B7
:100E90001A430D4B08331A601A1D126803681A436F
:100EA000094B0C331A600DE00749427911440A6876
:100EB00003681A430A6005E0027911440A6803686E
:100EC0009A430A60704700000004014030B50022D8
:100ED0008B071C0F0F2303FA04F20B4B8C1053F8F3
:100EE00024309343084C8D1044F8253023468C1051
:100EF00053F824308C07240F00FA04F42343024CE7
:100F00008D1044F8253030BD080001402DE9F04136
:100F1000024600250026002000230024002791F827
:100F200003C00CF00F0591F803C00CF0100CBCF1DD
:100F3000000F03D091F802C04CEA050591F800C0FB
:100F4000BCF1000F31D0146800202BE04FF0010CF1
:100F50000CFA00F3B1F800C00CEA03069E4220D15F
:100F600083004FF00F0C0CFA03F7BC4305FA03FCA7
:100F70004CEA040491F803C0BCF1280F06D14FF0ED
:100F8000010C0CFA00FCC2F814C00AE091F803C08E
:100F9000BCF1480F05D14FF0010C0CFA00FCC2F86F
:100FA00010C0401C0828D1D31460B1F800C0BCF1B7
:100FB000FF0F34DD546800202EE000F1080C4FF0E4
:100FC000010808FA0CF3B1F800C00CEA03069E42CF
:100FD00021D183004FF00F0C0CFA03F7BC4305FA44
:100FE00003FC4CEA040491F803C0BCF1280F05D1BE
:100FF00000F1080C08FA0CF8C2F8148091F803C04C
:10100000BCF1480F07D100F1080C4FF0010808FAB5
:101010000CF8C2F81080401C0828CED35460BDE8FC
:10102000F0810000F0B50A460023002400210025CD
:1010300000F00046B6F1004F02D11D4EF16901E00B
:101040001B4E7168C0F3034583B200F44016B6F539
:10105000401F08D121F07061154E766826F0706649
:10106000134F7E6012E000F48016B6F5801F06D1A3
:10107000032606FA05F4A14341F0706106E0460D2F
:10108000360103FA06F6B14341F0706122B1460D14
:10109000360103FA06F6314300F00046B6F1004F80
:1010A00002D1034EF16101E0014E7160F0BD00001C
:1010B000000001400246002093680B400BB1012064
:1010C00000E000207047416170470161704700BF38
:1010D000FEE7000010B504210A48FFF7F6FF0221E1
:1010E0000848FFF7F2FF00F037F804210548FFF742
:1010F000EAFF00F031F802210248FFF7E4FF00F0B8
:101100002BF810BD0008014010B504210648FFF778
:10111000DAFF02210448FFF7D8FF00F01DF8042190
:101120000148FFF7D2FF10BD0008014010B50421AF
:101130000848FFF7CAFF00F00FF802210548FFF743
:10114000C4FF00F009F802210248FFF7BCFF00F0DD
:1011500003F810BD00080140032000BF011EA0F1EC
:101160000102D0B2FAD1704708B50121042000F085
:1011700013FF10208DF80300F020ADF800000320CD
:101180008DF8020069460448FFF7C0FEF0210248CE
:10119000FFF79BFF08BD0000000801402DE9FC415E
:1011A00004460D4616466B4606223B21682000F099
:1011B00042FA0746BFB99DF801009DF8001040EAC9
:1011C000012000B220809DF803009DF8021040EA43
:1011D000012000B228809DF805009DF8041040EA27
:1011E000012000B230803846BDE8FC812DE9FC4189
:1011F00004460D4616466B4606224321682000F041
:101200001AFA0746BFB99DF801009DF8001040EAA0
:10121000012000B220809DF803009DF8021040EAF2
:10122000012000B228809DF805009DF8041040EAD6
:10123000012000B230803846BDE8FC812DE9F84F2E
:101240006B4602224121682000F0F5F99DF801006B
:101250009DF8001040EA01200FFA80FA5046FFF78F
:1012600031FA804600220B4BFFF7AFF906460A4AD7
:101270000A4BFFF791F80446FFF775FA83460849D1
:101280005846FFF719F80446FFF72DFA00B2BDE8FB
:10129000F88F000000407540A4703D0AD7434240DB
:1012A0000000C84210B500200E4908600E480068D2
:1012B00020F470400C4908600846006840F4405033
:1012C000086000200949C1F8AC0100F011F80120C4
:1012D0000449086000F00CF800200449C1F8A80196
:1012E00010BD0000A8812142040C01400080214271
:1012F00010B5022002F0FCFA10BD000008B5012173
:10130000082000F049FE4FF44060ADF800001020C6
:101310008DF8030003208DF8020069460448FFF7AA
:10132000F5FD4FF440610248FFF7CFFE08BD000015
:10133000000C014010B500200E4908600E480068FE
:1013400020F470400C4908600846006840F44050A2
:10135000086001200949C1F8AC01FFF7C9FF01206D
:1013600004490860FFF7C4FF00200449C1F8A80140
:1013700010BD0000A8812142040C014000802142E0
:1013800070B5054600241648006820F470401449E2
:1013900008600846006840F400400860002614E039
:1013A000002010490860FFF7A3FF01200E49C1F893
:1013B000A8016006040E0B487C38006808B1601C68
:1013C000C4B2FFF795FF701CC6B2082EE8DB15B952
:1013D000FFF7B0FF01E0FFF765FF204670BD00009A
:1013E000040C0140A88121420080214270B50446CE
:1013F0001248006820F470401049086008460068F0
:1014000040F44050086000200D490860002512E0BB
:10141000E0090B49091D08606006040E0120094916
:10142000C1F8A801FFF764FF002005490860FFF735
:101430005FFF681CC5B2082DEADB70BD040C0140DB
:10144000A88121420080214210B50E48006820F496
:1014500070400C4908600846006840F4405008603D
:101460000120094908600949C1F8A801FFF740FFB8
:10147000002005490860FFF73BFF00200349C1F841
:10148000A80110BD040C0140AC8121420080214222
:1014900010B50E48006820F470400C4908600846FA
:1014A000006840F44050086000200949086009497C
:1014B000C1F8AC01FFF71CFF012005490860054990
:1014C000C1F8AC01FFF714FF10BD0000040C01408F
:1014D000A88121420080214210B5002414480068F0
:1014E00020F47040124908600846006840F400404B
:1014F000086001200F490860FFF7FAFE01200E493D
:10150000C1F8A801FFF7F4FE07E0601CC4B2FA2C92
:1015100003DDFFF7BDFF012010BD064880380068DD
:101520000028F2D10349091F086000BFF4E700005A
:10153000040C0140AC8121420080214238B50121D8
:10154000084600F029FD0121042000F025FD4FF49C
:101550000040ADF8000010208DF8030003208DF846
:10156000020069462248FFF7D1FC01212148FFF71C
:1015700059FD002020490860FFF7C0FE80216B2044
:1015800000F0DDF8642002F08DF900216B2000F0FE
:10159000D6F8032000F091F8002000F086F8322001
:1015A00000F0B0F80021382000F0C9F800216A20CE
:1015B00000F0C5F80021232000F0C1F88021372079
:1015C00000F0BDF8752000F019F80446682C0BD126
:1015D00001216B2000F0B3F800216C2000F0AFF87F
:1015E000322000F08FF801E0012038BD0020FCE738
:1015F0000008014000023000BC01214270B50446E1
:10160000FFF722FFD020FFF7F1FEFFF765FF20462E
:10161000FFF7ECFEFFF760FFFFF716FFD120FFF7A3
:10162000E5FEFFF759FF0020FFF7AAFE0546FFF78A
:101630002FFF284670BD2DE9F04106460F4614469F
:101640001D46FFF701FF002141EA4601C8B2FFF73E
:10165000CDFEFFF741FF20B1FFF71AFF0120BDE8E3
:10166000F0813846FFF7C2FEFFF736FFFFF7ECFECA
:10167000012101EB4601C8B2FFF7B8FEFFF72CFFCE
:101680000DE0012C04D10020FFF77AFE287003E062
:101690000120FFF775FE2870601EC4B26D1C002C7F
:1016A000EFD1FFF7F5FE0020D9E710B50446E006BC
:1016B000010E1C2000F043F810BD10B50446E006F2
:1016C000010E1B2000F03BF810BD70B5044600254C
:1016D000BC2C01DB012510E0622C01DB02250CE0B3
:1016E0002A2C01DB032508E0142C01DB042504E08F
:1016F0000A2C01DB052500E0062529461A2000F00A
:101700001EF870BD70B50446B4F57A7F01DD4FF464
:101710007A74042C00DA04244FF47A7090FBF4F00D
:10172000401EC5B22946192000F009F80546264694
:1017300004EBD671C1F34F00FFF7C7FF70BD70B562
:1017400005460C46FFF780FED020FFF74FFEFFF75F
:10175000C3FE18B1FFF79CFE012070BD2846FFF7BD
:1017600045FEFFF7B9FE2046FFF740FEFFF7B4FE47
:1017700018B1FFF78DFE0120EFE7FFF789FE00208B
:10178000EBE72DE9F04105460E4617469846FFF770
:101790005BFE002141EA4501C8B2FFF727FEFFF7D3
:1017A0009BFE20B1FFF774FE0120BDE8F0813046BA
:1017B000FFF71CFEFFF790FE00240CE018F8040071
:1017C000FFF714FEFFF788FE18B1FFF761FE012056
:1017D000EBE7601CC4B2BC42F0DBFFF759FE00200F
:1017E000E3E700BFFEE7000008B50121082000F094
:1017F000D3FB10208DF803004FF44070ADF80000CB
:1018000003208DF8020069460648FFF77FFB4FF47E
:1018100080710448FFF759FC4FF400710148FFF74D
:1018200052FC08BD000C014010B5044600212046C2
:10183000FEF7C0FF01D8204610BD84F00040FBE752
:101840007047000070B5002100230F22C47804B354
:10185000154C246804F4E064C4F5E064210AC1F185
:101860000403CA40447804FA03F184781440214305
:1018700009010E4C0678A155047804F01F050124D7
:10188000AC4005786D11AD0005F1E025C5F80041CB
:1018900009E0047804F01F050124AC40044D0678EB
:1018A000761145F8264070BD0CED00E000E400E044
:1018B00080E100E002490143024A116070470000E4
:1018C0000000FA050CED00E070B500240CE00025E6
:1018D00006E00020074901EBC5010855681CC5B2A8
:1018E000802DF6DB601CC4B2082CF0DB00F0F4F8AD
:1018F00070BD00008800002010B504461CB900210E
:10190000A62000F01CFB012C03D10021A72000F031
:1019100016FB10BD10B504463CB90021C82000F0EC
:101920000EFB0021A12000F00AFB012C07D10021B1
:10193000C02000F004FB0021A02000F000FB10BD3F
:10194000F0B514460B46CF1701EB5777C7F3C70224
:10195000CF1701EB5777FF10A1EBC707FEB20123AA
:10196000B340DDB24CB1134B03EBC0039B5C2B4384
:10197000104F07EBC007BB541AE00E4B03EBC0033C
:101980009B5CDB430B4F07EBC007BB54094B03EBDE
:10199000C0039B5C2B43074F07EBC007BB54054BB1
:1019A00003EBC0039B5CDB43024F07EBC007BB5458
:1019B000F0BD00008800002008B50121042000F0DF
:1019C000EBFA0620ADF8000014208DF80300032088
:1019D0008DF8020069463948FFF798FA0621374822
:1019E000FFF773FB0021AE2000F0A9FA00210846A2
:1019F00000F0A5FA0021102000F0A1FA00214020FB
:101A000000F09DFA0021812000F099FA0021CF20FA
:101A100000F095FA0021A12000F091FA0021C820E1
:101A200000F08DFA0021A62000F089FA0021A820FC
:101A300000F085FA00213F2000F081FA0021D32038
:101A400000F07DFA0021084600F079FA0021D52047
:101A500000F075FA0021802000F071FA0021D920F1
:101A600000F06DFA0021F12000F069FA0021DA207F
:101A700000F065FA0021122000F061FA0021DB205D
:101A800000F05DFA0021302000F059FA00212020FA
:101A900000F055FA0021022000F051FA00218D20BB
:101AA00000F04DFA0021142000F049FAFFF70CFF76
:101AB0000021AF2000F043FA08BD000000080140FB
:101AC00010B50246012000E050430B1EA1F10104B5
:101AD000E1B2F9D110BD000070B500242BE004F193
:101AE000B001C8B2002100F02AFA0021084600F037
:101AF00026FA0021102000F022FAFFF7EBFA7820F6
:101B000000F0C6FAFFF712FB402000F0C1FAFFF721
:101B10000DFB002509E0094901EBC501085D00F056
:101B2000B7FAFFF703FB681CC5B2802DF3DBFFF7A4
:101B3000EBFA601CC4B2082CD1DB70BD8800002019
:101B40002DE9FE4F0746884692461C460197CDF880
:101B50000080082C02D14FF006091FE02046E31751
:101B600004EB5373DB1021464FEAE47C04EB5C7C0E
:101B70004FEAEC0CA4EBCC0CBCF1000F02D04FF000
:101B8000010C01E04FF0000C6344224604EBD27CD0
:101B90004FEA6C0C03FB0CF303F0FF09AAF12000E1
:101BA000C6B200255EE0082C07D106EB46002F499F
:101BB00001EB400010F805B01DE00C2C07D106EB3E
:101BC00046002B4901EB800010F805B013E0102C03
:101BD00005D1284800EB061010F805B00BE0182CD2
:101BE00007D106EBC600244901EB800010F805B0D0
:101BF00001E0BDE8FE8F002002901CE00BF0010028
:101C000028B1414638460C9AFFF79AFE09E00C9835
:101C100008B9012000E00020024641463846FFF79F
:101C20008FFE4FEA6B0B08F1010000F0FF080298ED
:101C3000401CC0B2029002980828DFDB781CC7B2B3
:101C4000082C0BD004EBD4714A100199791A8A42FE
:101C500004D1019F00980830C0B20090DDF80080E8
:101C6000681CC5B24D459EDB00BFC2E76C6E000824
:101C70009470000808750008F87A00082DE9FF4FF5
:101C800087B005461746DDE914643846FFF7CCFDFA
:101C900006900698FEF727FD642190FBF1F906985F
:101CA000FEF721FD0A2190FBF1F090FBF1F201FB20
:101CB000120808EB88014800FEF7F6FC6421029048
:101CC00009FB01F0FEF7F0FC01900699FEF7F1FA2E
:101CD00083460299FEF7EAFA8246FEF704FD059074
:101CE0000698FEF700FD0190FEF7DEFC834606999C
:101CF000FEF7DFFA5A490290FEF7DEFA8246FEF757
:101D0000F2FC04900698FEF7EEFC0190FEF7CCFC86
:101D100083460699FEF7CDFA82465249FEF7CCFA81
:101D20000290FEF7E0FC0A2190FBF1F201FB1200A9
:101D3000039000213846FEF73DFD44D833462B2260
:101D4000009428460899FFF7FBFE05F10801C8B288
:101D500001234A46CDE90064089900F085F805F1B1
:101D60001001C8B201234246CDE90064089900F091
:101D70007BF805F11801C8B20123CDE90064059A8A
:101D8000089900F071F805F12001C8B233462E22FF
:101D900000940899FFF7D4FE05F12801C8B2012389
:101DA000CDE90064049A089900F05EF805F130016D
:101DB000C8B20123CDE90064039A089900F054F8F1
:101DC000FFF78AFE48E000213846FEF7E9FC43D2DF
:101DD00033462D22009428460899FFF7B1FE05F1FD
:101DE0000801C8B201234A46CDE90064089900F011
:101DF0003BF805F11001C8B201234246CDE9006469
:101E0000089900F031F805F11801C8B20123CDE9B5
:101E10000064059A089900F027F805F12001C8B27E
:101E200033462E2200940899FFF78AFE05F1280117
:101E3000C8B20123CDE90064049A089900F014F8AF
:101E400005F13001C8B20123CDE90064039A089975
:101E500000F00AF8FFF740FE0BB0BDE8F08F00007D
:101E6000000020410000C8422DE9FF4F82B0064625
:101E700091461F46DDE90F4A4FF0000B082C01D1B7
:101E80004FF0020B002530E0781B401EC1B20A2043
:101E9000FFF716FEB9FBF0F00A21B0FBF1F201FBEF
:101EA0001208B8F1000F0ED104EBD4710BEB6101F5
:101EB00001FB0561C8B223463022CDE900A4039995
:101EC000FFF73EFE0FE004EBD4710BEB610101FB69
:101ED0000561C8B208F13001CAB22346CDE900A4B9
:101EE0000399FFF72DFE681CC5B2BD42CCDB06B0DE
:101EF000BDE8F08F2DE9F84106460F4614461D4611
:101F0000DDF81C8013E0CDF8008022782B4639469E
:101F10003046FFF715FE082D02D1B01DC6B205E010
:101F2000284605EBD07106EB6101CEB2641C207827
:101F3000202802DB20787E28E5DDBDE8F88170B539
:101F400005460C46FFF7C6F8782000F0A1F8FFF729
:101F5000EDF81CB1402000F09BF802E0002000F0FA
:101F600097F8FFF7E3F8284600F092F8FFF7DEF85D
:101F7000FFF7CAF870BD704729B1064AD26902431B
:101F8000044BDA6104E0034AD2698243014BDA610F
:101F9000704700000010024029B1064A92690243CE
:101FA000044B9A6104E0034A92698243014B9A61AF
:101FB000704700000010024030B5002100220024CC
:101FC00000232D4D6D6805F00C0121B1042905D0C9
:101FD000082923D105E0294D056022E0274D056041
:101FE0001FE0254D6D6805F47012234D6D6805F4F2
:101FF0008034022505EB92421CB9214D5543056002
:102000000BE01D4D6D6805F400351DB11C4D5543A9
:10201000056002E0194D5543056002E0174D05606B
:1020200000BF00BF144D6D6805F0F0010909154DA2
:102030006B5C0568DD4045600F4D6D6805F4E0613F
:10204000090A104D6B5C4568DD4085600A4D6D687E
:1020500005F46051C90A0B4D6B5C4568DD40C560F5
:10206000054D6D6805F44041890B074D6B5CC568F3
:10207000B5FBF3F5056130BD0010024000127A0097
:1020800000093D00180000202800002070470000D3
:1020900070B5044600251BE004F0800020B1042147
:1020A0000D48FFF712F803E004210B48FFF70BF887
:1020B000FFF752F802210848FFF707F8FFF74CF83E
:1020C00002210548FEF7FFFF6006040E681CC5B23A
:1020D000082DE1DB70BD00000008014010B500F0E4
:1020E00001F810BD0CB50020019000903348006845
:1020F00040F480303149086000BF3048006800F487
:10210000003000900198401C0190009818B9019887
:10211000B0F5A06FF1D12948006800F4003010B18B
:102120000120009001E0002000900098012843D198
:102130002348006840F01000214908600846006804
:1021400020F0030008600846006840F002000860C4
:102150001A4840681949486008464068486008467F
:10216000406840F4806048600846406820F47C1075
:1021700048600846406840F4E81048600846006837
:1021800040F08070086000BF0C48006800F00070EC
:102190000028F9D00948406820F00300074948604A
:1021A0000846406840F00200486000BF03484068AD
:1021B00000F00C000828F9D10CBD0000001002400E
:1021C00000200240042808D14FF0E021096941F0C5
:1021D00004014FF0E022116107E04FF0E0210969AE
:1021E00021F004014FF0E0221161704770470000B8
:1021F00010B51348006840F0010011490860084616
:102200004068104908400E494860084600680E4979
:1022100008400B4908600846006820F480200860E8
:102220000846406820F4FE0048604FF41F008860B4
:10223000FFF754FF4FF000600449086010BD000034
:10224000001002400000FFF8FFFFF6FE08ED00E07E
:1022500010B50121880700F02BF8012810D109489A
:102260000088C0EB00104FF6FF7101EA80000649BC
:1022700008800020034908800121880700F009F840
:1022800010BD00006E00002070000020CA430282D2
:102290007047CA430282704721B1028842F00102AE
:1022A000028004E002884FF6FE731A4002807047F5
:1022B00030B50246002000230024158A05EA0103F8
:1022C000958905EA010413B10CB1012000E000205A
:1022D00030BD1AB183890B43838102E083898B432C
:1022E0008381704701894FF6F87211400181704770
:1022F000002202881D4B98420ED01D4B98420BD0F5
:10230000B0F1804F08D01B4B984205D01A4B984231
:1023100002D01A4B984204D14FF68F731A404B8863
:102320001A43174B984207D0164B984204D04FF6E9
:10233000FF431A40CB881A4302808B8883850B8821
:1023400003850A4B98420BD0094B984208D00E4B9C
:10235000984205D00D4B984202D00D4B984201D1C6
:102360000B7A03860123838270470000002C014012
:10237000003401400004004000080040000C004010
:1023800000100040001400400040014000440140A3
:10239000004801401FB501210846FFF7EDFD4FF051
:1023A0008040FFF79FFF0020ADF80A00ADF806005F
:1023B00042F20F70ADF8080041F61F40ADF804007E
:1023C00000208DF80C0001A94FF08040FFF790FF2E
:1023D00001218807FFF75AFF012211469007FFF7F6
:1023E00078FF4FF4A060FFF765FA1C208DF800001D
:1023F00001208DF8030002208DF8010001208DF8E6
:1024000002006846FFF71EFA01218807FFF744FF24
:102410001FBD000010B540F22551274800F0D2F84A
:1024200048B1254800F08AF92449087040F2255146
:10243000214800F0ACF821480078302829D008DC89
:10244000102812D011280BD0202818D021282FD1E5
:1024500010E0312818D0402825D0412828D11DE08F
:1024600010211748FEF72FFE23E010211448FEF735
:102470002CFE1EE020211248FEF725FE19E0202147
:102480000F48FEF722FE14E040210D48FEF71BFE28
:102490000FE040210A48FEF718FE0AE080210848B4
:1024A000FEF711FE05E080210548FEF70EFE00E074
:1024B00000BF00BF10BD0000003801406D000020CB
:1024C0000008014000B587B001218803FFF764FDD3
:1024D00001210420FFF760FD4FF40070ADF81800F3
:1024E00003208DF81A0018208DF81B0006A921483A
:1024F000FEF70CFD4FF48060ADF8180048208DF811
:102500001B0006A91B48FEF701FD4FF4E1300290C5
:102510000020ADF80C00ADF80E00ADF81000ADF8DD
:1025200014000C20ADF8120002A9134800F09AF82C
:10253000012240F22551104800F06EF84FF4A060DF
:10254000FFF7B8F925208DF8040001208DF805006B
:102550008DF806008DF8070001A8FFF773F9012137
:10256000054800F023F84021034800F007F807B0C1
:1025700000BD0000000801400038014001F4007275
:10258000B2F5007F00D100BFCA430280704710B58A
:102590000022002340F66A14A14200D100BF0A12B3
:1025A00001249440A3B2DC43048010BD21B1828990
:1025B00042F40052828104E082894DF6FF731A4092
:1025C0008281704770B50246002400230025002058
:1025D00040F66A16B14200D100BFC1F3421501F0C6
:1025E0001F03012606FA03F3012D02D19689334019
:1025F00006E0022D02D1168A334001E0968A33406C
:102600000C12012606FA04F41688344013B10CB1FA
:10261000012000E0002070BDF0B503460024002634
:102620000025002040F66A17B94200D100BF1846C5
:10263000C1F3421401F01F06012707FA06F5012C29
:1026400001D10C3004E0022C01D1103000E0143034
:102650001AB107682F43076002E00768AF430760BD
:10266000F0BD00002DE9F04786B005460E46002477
:10267000A24600BFA1460027B08900B100BF2F4687
:102680002C8A4CF6FF700440F08804432C82AC89FD
:102690004EF6F3100440B08831890843718908432D
:1026A0000443AC81AC8A4FF6FF400440B089044338
:1026B000AC8201A8FFF780FC1F48874202D1DDF8F9
:1026C00010A001E0DDF80CA0A88900F4004040B1A2
:1026D0000AEBCA0000EB0A1031684900B0FBF1F8C0
:1026E00007E00AEBCA0000EB0A1031688900B0FB72
:1026F000F1F86420B8FBF0F004012009642101FB2B
:102700001089A88900F4004040B1322000EBC900D4
:10271000B0FBF1F000F00700044308E0322000EBCA
:1027200009106421B0FBF1F000F00F0004432C818C
:1027300006B0BDE8F08700000038014001468888F7
:10274000C0F30800704700BFFEE700000FB4054B60
:1027500010B503A9044A029800F05CF910BC5DF8BA
:1027600014FB0000F144000830000020490050EA4A
:10277000C12018BF04204A0D18BF40F0010040F2EC
:10278000FF72B2EB515F08BF40F00200012808BFA2
:10279000052070472DE9F0414F1E00EBC7010446AC
:1027A000D1E9000115461E4637F006020DD02A4633
:1027B0003346FDF798FE7F1E04EBC703D3E90023E1
:1027C000FDF7EAFD37F00602F1D1022F25D0042FE4
:1027D00013D0062F18BFBDE8F0812A463346FDF717
:1027E00082FED4E90A23FDF7D7FD2A463346FDF7DA
:1027F0007AFED4E90823FDF7CFFD2A463346FDF7DC
:1028000072FED4E90623FDF7C7FD2A463346FDF7DD
:102810006AFED4E90423FDF7BFFD2A463346FDF7DF
:1028200062FED4E90223FDF7B7FD2A463346FDF7E1
:102830005AFED4E90023BDE8F041FDF7ADBD012209
:10284000FEF7BEB8FDF7A8BD00221346104611469C
:10285000FDF7BBBE024A00201107FEF7B1B8000029
:1028600001FDFFFF02E008C8121F08C1002AFAD1CB
:1028700070477047002001E001C1121F002AFBD100
:102880007047000001490860704700007400002094
:102890002DE9FF5F82B00021DDE90430020DDDF893
:1028A00040B0034318D044F61050A2F2FF32424326
:1028B0001514119801281FD0A5EB0B00401C5FEAEE
:1028C000000A4FF000064E4FDFF83891B0465046F0
:1028D00015D5CAF1000413E0119801244AA3012878
:1028E00001D16FEA0B010298119AC0E90031C0E9E9
:1028F000024206B0BDE8F09FCBF10000DFE70446DE
:102900000021404A491842EB0450CDE9001012E082
:10291000E00707D032463B4640464946FDF7E3FD17
:102920008046894632463B4610461946FDF7DBFD98
:1029300006460F466410002CEAD1DDE90401DDE90A
:102940000023BAF1000F06DAFDF7CDFD42464B46F3
:10295000FDF7C9FD05E0FDF738FE42464B46FDF7A1
:1029600034FE04460E460022284BFEF759F803D8E1
:102970004FF0FF30014607E00022254B204631464C
:10298000FDF70AFDFEF733F8102409E0002C0ADBFE
:102990000A220023FDF72EFF039B30321A55641ED6
:1029A00050EA0102F2D1641C039AC4F111031444E9
:1029B000119A012A03D0012208430DD10AE00843ED
:1029C00004D000204FF0110B119072E7A3EB0B0520
:1029D0006D1E0DE05B4504DD4FF0000205F10105C1
:1029E00004E003DA4FF00002A5F10105002AECD063
:1029F00002981199C0E90231C0E9004579E7000069
:102A0000000014400000F03F300000000000F043E0
:102A10000000E03F2DE9FF4F95B09B4689460646F2
:102A200000250FE2252877D100242746F84A012106
:102A3000059400E0044316F8013F203B01FA03F03F
:102A40001042F7D130782A2811D06FF02F03307858
:102A5000A0F13002092A16D8059A44F0020402EBCC
:102A6000820203EB42021044761C0590EFE759F80E
:102A7000042B0592002A03DA504244F400540590D6
:102A800044F00204761C30782E2816D116F8010F77
:102A900044F004042A280DD06FF02F023078A0F102
:102AA0003003092B09D807EB870302EB4303C71850
:102AB000761CF3E759F8047B761C30786C280FD02D
:102AC00006DC4C2817D068280DD06A2814D104E001
:102AD000742810D07A280FD10DE044F400140AE0D5
:102AE00044F4801401E044F440147278824202D12C
:102AF00004F58014761C761C307866280BD013DC25
:102B0000582877D009DC002875D04528F6D046280B
:102B1000F4D047281AD19DE118E0632835D0642805
:102B200079D0652812D195E1702873D008DC672828
:102B3000F1D069286FD06E280DD06F2806D1B5E08E
:102B400073282CD0752875D0782874D05A461799D8
:102B500090476D1C75E1C4F30250022809D0032888
:102B60000DD0D9F8001004280DD00D6009F104092A
:102B700067E1D9F80010EA17C1E90052F6E7D9F881
:102B800000100D80F2E70D70F0E719F8041B8DF8C6
:102B9000001000208DF80100EA46012003E059F8FA
:102BA00004AB4FF0FF3061074FF0000102D40DE09D
:102BB00008F101018846B9420FDA8045F8DB1AF8BE
:102BC00008100029F4D108E008F10101884681428B
:102BD000FADB1AF808100029F6D105985B46A0EB3D
:102BE000080721463846179A00F094FA284400EB6B
:102BF000080507E04DE029E10DE01AF8010B5A46FF
:102C000017999047B8F10108F7D25B46214638463C
:102C1000179A13E142E00A220092C4F302524FF0E5
:102C2000000A022A08D059F804CB032A4FEAEC71B3
:102C30000AD00DE029E02AE009F1070121F007029E
:102C4000F2E802C1914609E00FFA8CFC4FEAEC7100
:102C5000042A03D14FFA8CFC4FEAEC71002907DA01
:102C60000A460021DCF1000C61EB02012D2202E09A
:102C7000220504D52B228DF80420012203E0E2076F
:102C800001D02022F7E7904659E00A2102E0102205
:102C90000DE010214FF0000A00910BE010224FF0E0
:102CA000000A44F004040827009203E008224FF0D1
:102CB000000A0092C4F30252022A05D059F804CB4C
:102CC0000021032A08D009E009F1070121F00702D9
:102CD000F2E802C1914605E01FFA8CFC042A01D1FA
:102CE0000CF0FF0C4FF00008220728D5702806D002
:102CF000009B83F0100353EA0A0305D00EE0402244
:102D00008DF80420012208E05CEA010206D030229E
:102D10008DF804208DF8050002229046009B83F078
:102D2000080353EA0A030AD15CEA010201D16207EF
:102D300005D530228DF804204FF001087F1E582859
:102D400004D034A003900EA802900DE036A0F9E75D
:102D500053466046009AFDF74DFD84460398825C19
:102D60000298401E029002705CEA0100F0D10298C5
:102D700006A9081A00F1200A600702D524F480345D
:102D800000E00127574502DDA7EB0A0000E0002024
:102D900000EB0A01009005984144401A0590E003B9
:102DA00006D45B462146179A059800F0B3F905440E
:102DB000002706E001A85A46C05D179990476D1C90
:102DC0007F1C4745F6DBE0030CD55B462146179A8E
:102DD000059800F09FF9054404E030205A46179901
:102DE00090476D1C0099481E00900029F5DC08E012
:102DF000029802995A460078491C02911799904707
:102E00006D1CBAF10001AAF1010AF1DC65E10000D4
:102E100009280100303132333435363738396162B0
:102E20006364656600000000303132333435363774
:102E300038394142434445460000000000F058F94B
:102E40000544761C307800287FF4ECAD19B0284694
:102E5000BDE8F08F620700D4062709F1070222F0CF
:102E6000070CFCE80223E14603F000485FEA080C87
:102E700002D00FF2702C0DE05FEA045C02D50FF275
:102E8000682C07E05FEAC47C02D00FF2602C01E0FE
:102E9000AFF2700C4FF0FF3823F00043CDF850C074
:102EA00065280CD006DC452809D046281DD04728C7
:102EB0003DD13DE0662818D067287ED138E000215A
:102EC000112F01DB112000E0781CCDE9000106A9DB
:102ED0000EA8FFF7DDFCDDE90F010E9A039100213A
:102EE000009207F1010A04914DE04FF00040009775
:102EF000CDE9011006A90EA8FFF7CAFCDDE90F0213
:102F000003920E9B11990022DDF80CA0009304920D
:102F100011B9791C00EB010AB7EB0A0004D4C0F127
:102F2000FF3007F1010A0490AAEB0700019044E08A
:102F3000012F00DA01270021112F01DD112000E00F
:102F40003846CDE9000106A90EA8FFF7A1FCDDE98E
:102F50000F010E9A0391002104910092BA462107B5
:102F60000CD40399514500DA8A46BAF1010F05DD08
:102F7000009AAAF10101515C302908D0B84202DA66
:102F800010F1040F06DA0121CDE9011015E0AAF1D4
:102F90000101E9E7002805DC049901440491AAEB4A
:102FA000000102E0411C514500DD8A460499401AA7
:102FB000401C01904FF000400290200704D401987B
:102FC000504501DBCDF8048000208DF84F000298B9
:102FD0000DF14F07B0F1004F25D02B200E90029835
:102FE0004FF0020800280CDA404202902D200E908B
:102FF00007E00A210298FDF7E7FB3031029007F85D
:10300000011DB8F10001A8F10108F2DC02980028C6
:10301000EFD1791E0E980870307800F0200040F053
:10302000450007F8020D12A8C01B00F1070814980C
:10303000007800B1012000EB0A01019801EBE0717A
:1030400005984144401A401E0590E00306D45B46B3
:103050002146179A059800F05DF805441498007809
:1030600018B15A46179990476D1CE00324D55B466A
:103070002146179A059800F04DF805441CE0049885
:10308000002807DBDDE90301884203DD0098405C8E
:10309000179901E0179930205A469047049805F196
:1030A0000105401C04900198401E019004D12E207F
:1030B0005A46179990476D1CBAF10001AAF1010A0E
:1030C000DDDC05E017F8010B5A46179990476D1C97
:1030D000B8F10001A8F10108F4DC5B462146179A1B
:1030E0000598ABE62D0000002B000000200000003A
:1030F0002DE9F041044600251E461746880404D4F5
:1031000005E039462020B0476D1C641EF9D52846DD
:10311000BDE8F0812DE9F041044600251E469046A9
:10312000C80301D5302700E02027880404D505E036
:1031300041463846B0476D1C641EF9D52846BDE8A7
:10314000F08100002DE9FE4F06460F460025684637
:1031500001F0DCF9002442E056F8240057F824106E
:10316000A0EB010ABAF1000F01DB514601E0CAF100
:1031700000010846FDF798FA83464FF08F41FDF7AE
:10318000CDF880465DF824000021FDF709FB16D03C
:103190005DF824104046FDF7C1F882464FF07E519D
:1031A000FDF784F8814629F0004A0F48416A5046ED
:1031B000FDF700FB12D20120A04005430EE00A48B3
:1031C000C1694046FDF7ECFA05D30748016A40465D
:1031D000FDF7F0FA02D20120A0400543641C032C45
:1031E000BADB2846BDE8FE8F446E00082DE9F04D9D
:1031F0008D4F21F0004A86B005460C46BA452ADBC1
:10320000AAEB070028430AD08848824501DC1AD17E
:10321000CDB106B02846BDE8F04DFFF710BB844A9B
:10322000844B2846FDF75FF907460E46824A834BDA
:1032300028462146FDF757F906B03A463346BDE821
:10324000F04DFDF7A9B80120FFF71CFB06B0BDE863
:10325000F04DFFF7F9BA7A48824542DABAF1795F60
:103260000BDA2846FFF782FA042808BFFFF7F2FAC4
:10327000284606B02146BDE8F08D2A460B4610468A
:10328000FDF731F9834602466E480E460B4606218D
:103290007844FFF77FFA5A463346FDF724F9804613
:1032A00069488A465A46334604217844FFF772FA41
:1032B0005A463346FDF717F900223B46FDF76CF8F6
:1032C00002460B4640465146FDF77FF92A46234603
:1032D000FDF709F906B02A462346BDE8F04DFDF793
:1032E0005BB8284624F0004100223D463B46FDF7EE
:1032F000F7F84FF0FF32FDF763FB064602465348EE
:103300000F460B4606217844FFF744FA32463B4607
:10331000FDF7E9F8CDE900014D4832463B4604216E
:103320007844FFF737FA32463B46FDF7DCF80022D7
:103330002B46FDF731F8834602913046394602F0BC
:103340004BFF804643480D46504517DCDDE9000140
:103350005A46029BFDF739F942462B46FDF7C3F862
:1033600042462B46FDF718F80122FDF729FB304AAB
:10337000304BFDF7B2F8304A304B4CE04FF0000ACA
:1033800052460B464046FDF707F8CDE9031052467A
:103390002B4610461946FDF7A6F832463B46FDF788
:1033A0009FF8DDE90332FDF710F906460F46DDE927
:1033B00000015A46029BFDF708F98346009101225D
:1033C00030463946FDF7FCFA194A1A4BFDF788F8E2
:1033D00006460F46012240462946FDF7F1FA5A46B5
:1033E000009BFDF780F832463B46FDF776F806462F
:1033F0000F46012250462946FDF7E2FA0E4DDFF84E
:1034000058802A464346FDF76BF832463B46FDF7A7
:1034100067F82A464346FDF763F8002CD8BF81F0D1
:10342000004106B0BDE8F08D0000F03F0000F07FE5
:10343000075C143326A6913C182D4454FB21F93F18
:103440000000E03FEC590000025A000076590000ED
:103450008C5900003333EF3FFB21E93F2DE9F84F52
:1034600004460D4621F0004000917349814211DC71
:103470007249884201DC06D12CB120462946BDE8BC
:10348000F84FFFF7DCB96E48002DCCBF6D496E498F
:10349000BDE8F88F6D49814211DD6D498142D8BF89
:1034A0004FF0FF366DDD20462946FFF75FF904280F
:1034B00008BFFFF7CFF920462946BDE8F88F6549D8
:1034C000654F25F00045814233DD6449814219DDB5
:1034D000002632464FF0804320462946FCF75CFF29
:1034E00080468A46012220462946FDF769FA0022D5
:1034F0003B46FCF7F2FF42465346FDF766F80446AA
:103500000D463EE001260022BA463B4620462946AB
:10351000FCF742FF80460F460022534620462946CC
:10352000FCF7DBFF42463B46FDF74FF804460D46ED
:1035300027E04B4981421BDDDFF828A1022600224B
:10354000534620462946FCF7CEFF00223B46FCF7B7
:1035500023FF80460F460022534620462946FCF7AB
:10356000BCFF42463B46FDF730F804460D4608E0F6
:10357000032622462B4600203B49FDF726F8044649
:103580000D4622462B4610461946FCF7ACFF8B46EB
:10359000824602460B46FCF7A6FF07460246334822
:1035A00088460B4606217844FFF7F4F852465B46FE
:1035B000FCF799FF82462E488B463A464346052142
:1035C0007844FFF7E7F83A464346FCF78CFF02469B
:1035D0000B46002E504659460CDAFCF7DDFE22461B
:1035E0002B46FCF780FF01B022462B46BDE8F04F8A
:1035F000FCF776BFFCF7D0FE22462B46FCF773FFA4
:103600001C4A7A4402EBC603D3E90023FCF765FFAA
:1036100022462B46FCF761FF174A7A4402EBC603A9
:10362000D3E90023FCF75CFF009A002AB8BF81F0C1
:103630000041BDE8F88F0000000010440000F07F5A
:10364000182D4454FB21F93FFB21F9BF0000DC3F5A
:103650000000203E0000F33F0000F03F0000E63F86
:10366000008003400000F83F0000F0BF8E570000CC
:103670004C570000EA560000B25600002DE9F04D0C
:103680009446CCF1000423F000464CEA0404524F67
:1036900046EAD4749A46884621F00042BC4206D8D5
:1036A000454240EA050442EAD474BC4204D9BDE86C
:1036B000F04D6246FFF7C6B8AAF14055A5F17F6507
:1036C00055EA0C040BD0022404EAAA74434DDFF837
:1036D00010E144EAD87452EA000B04D00CE0BDE8D3
:1036E000F04DFFF7BBBE002C14BF012CBDE8F08DE0
:1036F000022C30D0032C32D056EA0C0B0AD0BE423A
:1037000020D1BA4209D126F0804622F080423346C9
:10371000114617E000291ADB25E0DFF8C8B0FB44AA
:10372000002C04BFDBE90001BDE8F08D012C02BFD5
:10373000DBE9000181F00041BDE8F08D022C0AD0E8
:10374000032C0CD0BA4212D1B8F1000F0BDA234887
:103750002549BDE8F08D28462449BDE8F08D28466E
:103760007146BDE8F08D1D482149BDE8F08D921BE2
:1037700012153C2AC4BF19481D490EDCBAF1000FCE
:10378000BEBF12F13C0F0020014606DB6246FCF78B
:103790001CFF21F00041FFF761FE002C08BFBDE8CF
:1037A000F08D012C04BF81F00041BDE8F08D114A7D
:1037B000114B022C07D0FCF790FE2A46BDE8F04DD5
:1037C0000A4BFCF78ABEFCF788FE2A46BDE8F04D9E
:1037D000064BFCF785BE00000000F07F182D445416
:1037E000FB2109C046560000FB21F9BFFB2109401F
:1037F000FB21F93F075C143326A6A13C2DE9F041DB
:103800000446E07800F0C006E07800F03F056078FC
:1038100000F0010098B1EF102846E91705EB51714F
:10382000C910A5EBC101491C01F0FF080B48006855
:1038300020B10A48414602683846904700BF607888
:1038400000F0080030B10548406818B1B011034AD3
:10385000516888470020BDE8F08100007800002012
:1038600010B56FF00400FEF7ADFC0A4800680A4985
:10387000B0FBF1F0094908700846007800EB400100
:10388000C1EBC0104FF6FF7101EAC0000449088087
:1038900010BD00000400002000127A002C0000205F
:1038A0002E0000200146114A12884A434FF0E023BF
:1038B0005A6100229A611A46126942F001021A61A5
:1038C00000BF4FF0E022106900F001021AB100F4CD
:1038D0008032002AF5D04FF0E022126922F0010276
:1038E0004FF0E0231A6100229A6170472E000020F9
:1038F0000146114A12784A434FF0E0235A610022F0
:103900009A611A46126942F001021A6100BF4FF033
:10391000E022106900F001021AB100F48032002A9E
:10392000F5D04FF0E022126922F001024FF0E023BF
:103930001A6100229A6170472C00002038B50446B5
:1039400064B120208DF8000028208DF8010030207F
:103950008DF8020038208DF8030004E0A322042132
:103960006846FCF732FC6A46042140F69E2002F0CD
:1039700061FB01F04BFF38BD3EB5044602208DF8D7
:103980000000CA208DF80100E3208DF80200092014
:103990008DF803006A460421682002F04BFBA32047
:1039A0008DF8000004F0400048B1C0208DF80100FF
:1039B000C8208DF80200C2208DF8030006E0A32085
:1039C0008DF801008DF802008DF8030004F4C0703A
:1039D00048B1C4208DF80400CC208DF80500C62025
:1039E0008DF8060006E0A3208DF804008DF8050090
:1039F0008DF80600A3208DF807008DF808008DF8DB
:103A000009006A460A2140F6A72002F013FB04F0E1
:103A1000030018B120208DF8000002E0D8208DF8B6
:103A200000006A46012140F6B62002F003FB04F0D4
:103A3000200018B1012000F0ADF802E0002000F0F5
:103A4000A9F804F4C07008B304F4807060B1B22027
:103A50008DF800008B208DF80100B6208DF8020053
:103A60009B208DF803000BE0B0208DF80000802033
:103A70008DF80100B4208DF8020090208DF803002D
:103A80006A46042140F6A22002F0D4FA04F00100B4
:103A900020B3F8208DF800006A4601214FF40B6036
:103AA00002F0C8FAFA21072000F02CFC072000F0F1
:103AB000F3FB012000F013FC642000F0F3FC4FF452
:103AC000FA7000F002FDC821304800F0A3FB282066
:103AD00000F0BCFB0A2000F0CCFB08E0D8208DF8F9
:103AE00000006A4601214FF40B6002F0A3FA04F0D3
:103AF000020018B1D9208DF8000002E0D8208DF81E
:103B000000006A46012140F23D7002F093FA04F091
:103B1000040018B1012000F069F802E0002000F074
:103B200065F804F0100018B10120FFF707FF02E06C
:103B30000020FFF703FF44F008001549488101F019
:103B400065FE00201249887304F0400018B1084651
:103B5000807B801D887304F4C07020B10C48807B8A
:103B6000801D0B49887304F0140020B10848807B45
:103B700010300749887304F0030020B10448807BAB
:103B8000001D0349887300203EBD000009E3CA02FE
:103B9000780000203EB504466CB10EA1D1E90020AA
:103BA0008968CDE9002002916A4609214FF49760A7
:103BB00002F040FA3EBD0AA2D2E900109268CDE9B7
:103BC000010200916A4609214FF4976002F032FA2F
:103BD000F0E70000B8AAB38DB4980D355D00000081
:103BE000B8AAAAAAB088C3C5C700000038B5044661
:103BF00064B1C0208DF80000C2208DF80100C420FF
:103C00008DF80200C6208DF8030004E08B22042109
:103C10006846FCF7DAFA6A46042140F6982002F07A
:103C200009FA01F0F3FD38BD10B5C8234FF48062E6
:103C3000024940F6F63001F07DFC10BD2462000818
:103C40002DE9F04F8DB00746884615469946DDE9C7
:103C5000166B0024002030806B49887B5A4605A9EA
:103C600001F034FD18B1601E0DB0BDE8F08F66485C
:103C7000807A00F01400002867D09DF81400000638
:103C80009DF8151040EA01409DF8161040EA012009
:103C90009DF81710084328609DF8180000069DF84D
:103CA000191040EA01409DF81A1040EA01209DF8E1
:103CB0001B10084368609DF81C0000069DF81D104D
:103CC00040EA01409DF81E1040EA01209DF81F10B7
:103CD0000843A8609DF8200000069DF8211040EAE6
:103CE00001409DF8221040EA01209DF8231008436E
:103CF000E86004F11000C4B22868001401906868FC
:103D000000140290A86800140390E868001404905E
:103D100001984043029901FB0100039901FB010056
:103D2000049901FB010ABAF1706F02DBBAF1885FF6
:103D300005DD01F06BFD00203080401E94E7B6F9F0
:103D4000000040F48070308000BF2F48807A00F07F
:103D5000400020B305A9601C085C095D40EA012011
:103D600000B2A8F8000005A9E01C095C05AAA01C87
:103D7000105C41EA002000B2A8F8020005A9601D0D
:103D8000095C201D105C41EA002000B2A8F8040084
:103D9000A01DC4B2B6F9000040F0080030801A48F7
:103DA000408900F4C07008B305A9601C085C095D77
:103DB00040EA012000B2388005A9E01C095C05AA90
:103DC000A01C105C41EA002000B2788005A9601DAB
:103DD000095C201D105C41EA002000B2B880A01DE3
:103DE000C4B2B6F9000040F0700030800648807A16
:103DF00000F0030018B105A90819FFF7FFFC4846B9
:103E000001F02AF800202FE77800002070B588B074
:103E1000064601A801F0E2F9BDF804000021C9033B
:103E200041EA5045C4034448007A00F0030056F8C4
:103E3000200005904048007A00F0040010B1059879
:103E4000404205903C48007AC0F3C10056F820007B
:103E500006903948007A00F0200010B106984042E0
:103E600006903548007AC0F3811056F8200007907C
:103E70003148008900F4807010B1079840420790E3
:103E80000598C117A0FB042301FB043100FB0510BA
:103E9000810041EA927005900698C117A0FB0423A7
:103EA00001FB043100FB0510810041EA927006908D
:103EB0000798C117A0FB042301FB043100FB051088
:103EC000810041EA927007900598000E8DF8080075
:103ED0000598000C8DF809000598000A8DF80A0075
:103EE0000598C0B28DF80B000698000E8DF80C00F6
:103EF0000698000C8DF80D000698000A8DF80E004B
:103F00000698C0B28DF80F000798000E8DF81000CB
:103F10000798000C8DF811000798000A8DF8120020
:103F20000798C0B28DF8130002AA0C214FF4257037
:103F300002F080F808B070BD7800002030B585B080
:103F4000044616A207CA02AB07C3C82C03DD4FF014
:103F5000FF3005B030BDC82090FBF4F0401E85B2A4
:103F6000280A8DF80000E8B28DF801006A460221A7
:103F700040F2162002F05EF810B14FF0FF30E8E793
:103F800002AA0C2140F6C12002F054F810B14FF003
:103F9000FF30DEE7044884810020DAE7FEF2ABC49C
:103FA000AAF1DFDFBBAFDFDF780000201FB50446DA
:103FB0004848007A00F0030054F82000019045487A
:103FC000007A00F0040010B101984042019041488D
:103FD000007AC0F3C10054F8200002903D48007AF6
:103FE00000F0200010B10298404202903948007A57
:103FF000C0F3811054F8200003903648008900F483
:10400000807010B10398404203903349019880FBBF
:104010000101800F40EA810001902F49029880FB46
:104020000110820042EA917002902B49039880FBB4
:104030000110820042EA917003900198000E8DF801
:1040400000000198000C8DF801000198000A8DF81D
:1040500002000198C0B28DF803006A4604214FF4B3
:10406000747001F0E7FF18B14FF0FF3004B010BDDD
:104070000298000E8DF800000298000C8DF80100E7
:104080000298000A8DF802000298C0B28DF8030071
:104090006A4604214FF4757001F0CCFF10B14FF067
:1040A000FF30E3E70398000E8DF800000398000C42
:1040B0008DF801000398000A8DF802000398C0B241
:1040C0008DF803006A4604214FF4767001F0B2FFC8
:1040D000CCE700007800002009E3CA0210B586B0E2
:1040E000044647A00068039046A00068029046A0DE
:1040F0000068019045A00068009004F0030003A947
:10410000085C8DF8140003A8C4F3C101405C8DF86D
:10411000150003A8C4F38111405C8DF8160004F06B
:10412000030002A9085C8DF8100002A8C4F3C101C5
:10413000405C8DF8110002A8C4F38111405C8DF839
:10414000120005AA032140F2264001F073FF18B1C6
:104150004FF0FF3006B010BD04AA032140F22A4000
:1041600001F068FF10B14FF0FF30F3E701980590C0
:104170000098049004F0040058B19DF8140040F039
:1041800001008DF814009DF8100040F001008DF83A
:10419000100004F0200058B19DF8150040F0010017
:1041A0008DF815009DF8110040F001008DF8110008
:1041B00004F4807058B19DF8160040F001008DF8AD
:1041C00016009DF8120040F001008DF8120005AABB
:1041D00003214FF4886001F02DFF10B14FF0FF3044
:1041E000B8E704AA032140F2314001F023FF10B1E7
:1041F0004FF0FF30AEE7064804810020AAE7000038
:104200004CCD6C000CC92C00365676002646660054
:1042100078000020F8B505460E464FF47A7095FBFD
:10422000F0F000FB06F4200E8DF80000200C8DF855
:104230000100200A8DF80200E0B28DF803006A4602
:1042400004214FF4AE7001F0F5FEF8BD38B5044618
:10425000052094FBF0F084B220128DF80000E0B24B
:104260008DF801006A4602214FF4AD7001F0E2FEC4
:1042700038BD38B50446052094FBF0F084B2201216
:104280008DF80000E0B28DF801006A4602214FF47B
:10429000AC7001F0CFFE38BD38B504460020009068
:1042A00004F0010020B19DF8000040F030000090C3
:1042B00004F0020020B19DF8000040F00C000090D6
:1042C00004F0040020B19DF8000040F003000090CD
:1042D0006A4601214FF4A47001F0ACFE38BD38B538
:1042E0000446012C01DA012402E0042C00DD042440
:1042F000601EC0B200906A46012140F24F1001F0EA
:1043000099FE38BD2DE9FC4706460F4606F007002A
:1043100010B1B7F5C86F03DD4FF0FF30BDE8FC8783
:104320003846FCF7CAF981465949FBF7F7FF804642
:10433000684600F02DFF9DF80000022806D00428F2
:1043400016D0082826D0102848D135E04FF08D41EE
:104350004046FBF7B1FF8146FCF7DEF984B24D49D8
:104360004046FBF7A9FF8146FCF7D6F985B238E055
:104370004FF08C414046FBF79FFF8146FCF7CCF99C
:1043800084B245494046FBF797FF8146FCF7C4F9E4
:1043900085B226E04FF08B414046FBF78DFF81460A
:1043A000FCF7BAF984B23D494046FBF785FF8146E8
:1043B000FCF7B2F985B214E04FF08A414046FBF7B2
:1043C0007BFF8146FCF7A8F984B235494046FBF7EC
:1043D00073FF8146FCF7A0F985B202E04FF0FF3091
:1043E0009CE700BF20128DF80400E0B28DF80500B4
:1043F00028128DF80600E8B28DF8070006F00100DB
:10440000A0B101AA02214FF4EA7001F013FE10B12D
:104410004FF0FF3082E70DF1060202214FF4927057
:1044200001F008FE10B14FF0FF3077E706F0020010
:10443000A0B101AA02214FF4EC7001F0FBFD10B114
:104440004FF0FF306AE70DF1060202214FF494703D
:1044500001F0F0FD10B14FF0FF305FE706F004000F
:10446000A0B101AA02214FF4EE7001F0E3FD10B1FA
:104470004FF0FF3052E70DF1060202214FF4967023
:1044800001F0D8FD10B14FF0FF3047E7002045E7BD
:1044900000004843000040460000C0450000404581
:1044A0000000C04438B50446052094FBF0F085B206
:1044B00028128DF80000E8B28DF801006A4602214A
:1044C0004FF4EF7001F0B6FD38BD38B50446052055
:1044D00094FBF0F085B228128DF80000E8B28DF858
:1044E00001006A4602214FF4ED7001F0A3FD38BDD2
:1044F00000BF054A128802F04002002AF9D0C2B279
:10450000014B1B1D1A807047003801407CB50546E1
:1045100028494968087801AB04220D21FDF78BF882
:1045200008B107207CBD9DF80700C0F301109DF87D
:10453000041001F0E00140EAE1008DF800009DF870
:104540000700C0F381009DF8051001F0E00140EA8A
:10455000E1008DF801009DF8070000F003009DF8D0
:10456000061001F0E00140EAE1008DF802000024AD
:104570001CE01DF8040018B9002045F8240013E0E1
:104580000D4845F8240006E055F824000B49FBF7D8
:1045900093FE45F824001DF80400401EC0B20DF83B
:1045A00004000028F0D100BF601CC4B2032CE0DB83
:1045B0000020B7E7380000207B14AE3E1D5A843F30
:1045C0002DE9F04F87B005460C46914601208DF845
:1045D000100000208DF81100FE4A1268917CFD4AFF
:1045E0005268107804AB0222FDF7CBF820B14FF0EF
:1045F000FF3007B0BDE8F08FC820FFF753F9002067
:104600008DF81000F34A1268D17BF24A5268107894
:1046100004AB0122FDF7B5F810B14FF0FF30E8E729
:10462000EC4A12685179EB4A5268107804AB0122C7
:10463000FDF7A7F810B14FF0FF30DAE7E54A12684E
:10464000917CE44A5268107804AB0122FDF799F896
:1046500010B14FF0FF30CCE7DE4A1268D17DDD4A61
:104660005268107804AB0122FDF78BF810B14FF0BF
:10467000FF30BEE7D74A12681179D64A52681078DF
:1046800004AB0122FDF77DF810B14FF0FF30B0E729
:104690000C208DF81000CF4A12681179CD4A52686B
:1046A000107804AB0122FDF76CF810B14FF0FF3029
:1046B0009FE70F20FFF7F6F8C648806A407A8DF82A
:1046C0001000C44A12689178C24A5268107804AB4C
:1046D0000122FDF756F810B14FF0FF3089E7BD48D1
:1046E000806A007A8DF81000BA4A12685178B94A87
:1046F0005268107804AB0122FDF743F810B14FF077
:10470000FF3076E7B9F1000F07D0B248806A807AAF
:1047100040F0E0008DF8100004E0AE48806A807A36
:104720008DF81000AB4A12689179AA4A5268107845
:1047300004AB0122FDF725F810B14FF0FF3058E728
:10474000B9F1000F07D0A348806AC07A40F0E000BA
:104750008DF8100003E0A048C07A8DF810009D4A43
:104760001268D1799B4A5268107804AB0122FDF798
:1047700008F810B14FF0FF303BE7B9F1000F02D05D
:10478000C820FFF78FF840208DF81000914A12687A
:104790001179904A5268107804AB0122FCF7F1FFBE
:1047A00010B14FF0FF3024E778208DF81000894ACF
:1047B00012685179874A5268107804AB0122FCF7DD
:1047C000E0FF10B14FF0FF3013E783498889FFF70E
:1047D00069F800208DF810007E4A126851797D4AF0
:1047E0005268107804AB0122FCF7CBFF10B14FF0F8
:1047F000FF30FEE6774A1268917A764A526810785E
:1048000004AB0222FCF717FF10B14FF0FF30F0E6C7
:104810009DF811009DF8101040EA012B0C209BFB25
:10482000F0F0C6B20020A86068602860A0606060F8
:104830002060824665E0674A1268D17A654A52680C
:10484000107804AB0C22FCF7F6FE10B14FF0FF30ED
:10485000CFE69DF811009DF8101040EA012000B24B
:10486000ADF808009DF813009DF8121040EA0120F1
:1048700000B2ADF80A009DF815009DF8141040EA4A
:10488000012000B2ADF80C00BDF908102068084402
:104890002060BDF90A10606808446060BDF90C1022
:1048A000A0680844A0609DF817009DF8161040EA23
:1048B000012000B2ADF800009DF819009DF8181015
:1048C00040EA012000B2ADF802009DF81B009DF8FF
:1048D0001A1040EA012000B2ADF80400BDF9001042
:1048E000286808442860BDF90210686808446860B8
:1048F000BDF90410A8680844A8600AF1010000F09E
:10490000FF0AB24597DB3448D0F800C02868C117C9
:10491000090441EA10410704624600233846FBF7C8
:1049200023FC32460023CDE90201FBF71DFC286081
:104930002948D0F800C06868C117090441EA10414D
:104940000704624600233846FBF70EFC324600237C
:10495000CDE90201FBF708FC68601F48D0F800C0F1
:10496000A868C117090441EA104107046246002300
:104970003846FBF7F9FB32460023CDE90201FBF78D
:10498000F3FBA8601448D0F804C02168C8170004DD
:1049900040EA11480F046246002338464146FBF7BF
:1049A000E3FB32460023CDE90201FBF7DDFB20608B
:1049B0000948D0F804C06068C117090441EA1041F1
:1049C0000704624600233846FBF7CEFB324600233D
:1049D00004E0000038000020446E0008CDE9020128
:1049E000FBF7C2FB60601148D0F804C0A068C11793
:1049F000090441EA10410704624600233846FBF7E8
:104A0000B3FB32460023CDE90201FBF7ADFBA0600A
:104A1000A068002804DDA068A0F58030A06003E055
:104A2000A06800F58030A0600020E2E5446E000838
:104A30002DE9FC5F06460F4600253D494968087888
:104A400001AB03220D21FCF7F6FD10B10720BDE8F4
:104A5000FC9F9DF8040000F01F008DF804009DF8F5
:104A6000050000F01F008DF805009DF8060000F01D
:104A70001F008DF80600002456E056F8240057F871
:104A80002410A0EB010BBBF1000F01DB594601E044
:104A9000CBF100010846FBF707FE4FF08F41009075
:104AA000FBF73CFC814601A8005D68B3214908681A
:104AB000FBF703FE834659461F48FBF72FFC804651
:104AC00004E01E494046FBF7F7FB804601A8005D65
:104AD000401EC0B201A908550028F2D141464846FF
:104AE000FBF71CFC83464FF07E51FBF7DFFB824651
:104AF0002AF0004B0F4881695846FBF75BFE12D243
:104B00000120A04005430EE00A4801694846FBF732
:104B100047FE05D3074841694846FBF74BFE02D2E2
:104B20000120A0400543641C032CA6DB28468EE729
:104B300038000020446E000800B04C4554E3853F27
:104B400010B50446204600F00FF80346E01C00F0C4
:104B50000BF843EAC00083B2A01D00F005F843EA59
:104B6000801083B2184610BD014691F90020002A3A
:104B700001DD00201EE091F90020002A01DA042066
:104B800018E091F90120002A01DD012012E091F9DD
:104B90000120002A01DA05200CE091F90220002A08
:104BA00001DD022006E091F90220002A01DA062048
:104BB00000E00720704700008CB0FCF7D5FAFEF744
:104BC0004FFEFCF7F9FE0020FCF796FE0020FCF7F4
:104BD000A1FEFCF7B3FCFDF775FCFBF7AFFFFDF79B
:104BE000D9FBFCF701FE0120182371A200210090DF
:104BF0000F20FDF77FF9012018236FA21C210090E0
:104C00000020FDF777F9FCF767FF01210846FDF763
:104C1000C3F901216B48FCF705FA03E0FCF754FEE9
:104C2000FCF75AFF00F064FA0028F7D1FCF74CFEBD
:104C3000FCF752FFFCF7C0FE0020FCF75DFE0020F1
:104C4000FCF768FE01200C235FA2002100900846BB
:104C5000FDF750F901200C235DA2194600900020B9
:104C6000FDF748F901200C235BA2182100900020D9
:104C7000FDF740F901200C2359A2242100900020C7
:104C8000FDF738F901200C2357A2302100900020B5
:104C9000FDF730F9FCF720FF89E009AA0AA90BA863
:104CA00000F014F90028F7D1FBF786FF534908609C
:104CB000FCF7C4FA074606AA07A908A8FCF76EFA8B
:104CC00003AA04A905A8FCF791FA0B98FBF738FD95
:104CD000044622460B464AA0FDF738FD0A98FBF72A
:104CE0002FFD044622460B4648A0FDF72FFD0998EC
:104CF000FBF726FD044622460B4647A0FDF726FD9E
:104D00003846FBF7D1FC80464649FBF707FB0446D3
:104D1000FBF716FD05462A460B4643A0FDF716FD98
:104D200036480068FBF70CFD044622460B4641A0BE
:104D3000FDF70CFD4248018842A0FDF707FD45A0A4
:104D4000FDF704FD01200C210346CDE900100021F0
:104D500032200B9AFCF792FF01200C210523CDE9AC
:104D6000001032200A9AFCF789FF01200C2105234C
:104D7000CDE9001018213220099AFCF77FFF0120AD
:104D80000C210523CDE900101C48242102683220A3
:104D9000FCF774FF01200C210523CDE90010284801
:104DA000028830213220FDF75FF8FCF795FE74E7AA
:104DB00057616974696E6700496E697469616C69ED
:104DC000736500000002300050495443483A000027
:104DD000524F4C4C3A0000005941573A0000000035
:104DE00054454D503A00000053504545443A202068
:104DF000202020202020722F6D696E0000000020EE
:104E00005069746368202025660D0A00526F6C6C2F
:104E1000202025660D0A0000596177202025660DA7
:104E20000A0000000000C84274656D703A20202519
:104E3000660D0A00543A202025660D0A0000000085
:104E40007000002073706565643A202025640D0AA7
:104E500000000000200D0A007047000070B50446F5
:104E6000002624F00104184890F8240008B100201E
:104E700070BD1548807A10B94FF0FF30F8E712483E
:104E8000057C807A2040104908740846007CA042C6
:104E900002D04FF0FF3600E0002614B90A48007D2A
:104EA00018B1012001F050F902E0002001F04CF9A6
:104EB0003CB100F0ABFC20B1034805744FF0FF306B
:104EC000D6E73046D4E70000380000202DE9F04F47
:104ED00099B004460D4616464FF07E574FF0000835
:104EE0004FF000094FF0000A12A813A918AB0EAA40
:104EF000CDE9001014A916A8FEF7A2FE18B10120F2
:104F000019B0BDE8F08FBDF84C0000F480700028A7
:104F10007ED00E98FBF7C8FB83464FF09D41FBF710
:104F2000FDF907460F98FBF7BFFB83464FF09D4105
:104F3000FBF7F4F980461098FBF7B6FB83464FF079
:104F40009D41FBF7EBF981461198FBF7ADFB8346DA
:104F50004FF09D41FBF7E2F9824639464FF0804021
:104F6000FBF7AAF949460590FBF7A6F941460790D9
:104F70004FF04040FBF7A0F951460590FBF79CF934
:104F800006900799FBF740F98346FBF7D9FBCDE97B
:104F90000801FEF72BF94FF06632544BCDE90A01B8
:104FA000FBF7A1FACDE90C01FBF7DDFB20604946D8
:104FB0004FF08040FBF780F949460290FBF77CF9FF
:104FC000414604904FF04040FBF776F9414602908D
:104FD000FBF772F903900499FBF768F983464FF0E9
:104FE0007E51FBF711F90590FBF7AAFBCDE908010B
:104FF00039464FF08040FBF75FF941460390FBF7DD
:105000005BF9494604904FF08040FBF755F900E00A
:1050100068E051460390FBF74FF983460499FBF78C
:10502000F3F80590FBF78CFBCDE90601DDE90823D9
:10503000FEF724FB4FF066322C4BCDE90A01FBF75B
:1050400052FACDE90C01FBF78EFB28605146504621
:10505000FBF732F9494604904846FBF72DF94146E3
:1050600003904046FBF728F9394601903846FBF794
:1050700023F900900199FBF7C7F802900399FBF719
:1050800015F983460499FBF711F90590FBF758FBD6
:10509000CDE9080151463846FBF70EF94946049020
:1050A0004046FBF709F903900499FBF7ADF84FF080
:1050B00080410590FBF700F98346FBF741FBCDE902
:1050C0000601DDE90823FEF7D9FA4FF06632074BF7
:1050D000CDE90A01FBF707FACDE90C01FBF743FB29
:1050E000306001E002200BE7002009E766A64C4093
:1050F00070B50024FCF702F900F024F9002840D133
:10510000782000F02FFFC4B20CB1012070BD7820D0
:10511000FFF7A4FEC4B20CB10220F7E7642000F050
:10512000D3FEC4B20CB10320F0E7FEF77DFDC4B29C
:105130000CB10420EAE71548FFF702FD0546FEF72B
:10514000CDFFC4B20CB10520E0E740F27310FEF7CA
:1051500013FCC4B20CB10620D8E76420FEF7EEFEC3
:10516000C4B20CB10720D1E700F0A4FF04460CB193
:105170000820CBE7012000F0A3FDC4B21CB1092038
:10518000C4E70A20C2E70020C0E700006400002056
:1051900001461148407A30B1012807D0022808D0D2
:1051A00003280CD108E0022008700BE004200870EE
:1051B00008E00820087005E01020087002E04FF0B9
:1051C000FF30704700BF0448C07C18B10878400623
:1051D000000E08700020F4E7380000200146134854
:1051E000407A30B1012808D002280AD0032810D113
:1051F0000BE04FF4804008800EE041F69C70088080
:105200000AE04FF48050088006E04FF40060088008
:1052100002E04FF0FF30704700BF0448C07C10B17F
:105220000888401008800020F5E7000038000020C2
:1052300001460248007C08700020704738000020BA
:1052400001460F48007A30B1012807D0022809D062
:1052500003280FD10AE0FA2008800EE04FF4FA701C
:1052600008800AE04FF47A70088006E04FF4FA6094
:10527000088002E00020088000BF00BF00207047C7
:105280003800002001460E48007A30B1012807D0CE
:10529000022808D003280CD108E00A4808600BE077
:1052A0000948086008E00948086005E00848086007
:1052B00002E04FF0FF30704700BF0020FBE7000026
:1052C00038000020000003430000834233330342D0
:1052D0003333834101461248C07A082817D2DFE8E9
:1052E00000F01704070A0D101318BC20088013E003
:1052F0006220088010E02A2008800DE01420088039
:105300000AE00A20088007E00520088004E000BFCA
:1053100000BF0020088000BF00BF002070470000D1
:10532000380000200146064890F8240010B14FF0E4
:10533000FF3070470248C08908800020F9E700006C
:10534000380000201CB580208DF80000654A1268E6
:10535000917C644A526810786B460122FCF711FA7E
:1053600010B14FF0FF301CBD6420FEF79BFA002007
:105370008DF800005B4A1268917C5A4A5268107896
:105380006B460122FCF7FDF910B14FF0FF30EAE760
:10539000544A1268917D534A526810786B4606222F
:1053A000FCF749F910B14FF0FF30DCE79DF805003C
:1053B000C007400F9DF8031001F0010140EA4100D1
:1053C0009DF8011001F0010140EA010494B1012CA3
:1053D00003D101214348C17431E0022C03D10021E3
:1053E0004048C1742BE021463FA0FDF7AFF94FF0D4
:1053F000FF30B8E73B4A1268D1783A4A52681078D1
:105400006B460122FCF717F910B14FF0FF30AAE705
:105410009DF8000000F00F042CB93D48FDF796F907
:105420004FF0FF309FE7042C06D13AA0FDF78EF92C
:1054300001212C48C17402E000212A48C174FF21D7
:1054400028488172FF2027490872FF2125484172B0
:10545000C1724FF6FF71C181FF2101748174012176
:10546000017380F82210002180F823104175017526
:105470001630016041608160163880F8241080F891
:105480002510C1844FF4FA6000F062FC10B14FF0B7
:10549000FF3068E7022000F02BFB10B14FF0FF3027
:1054A00061E72A2000F0CEFC10B14FF0FF305AE740
:1054B000322000F009FD10B14FF0FF3053E700201B
:1054C000FFF7CCFC10B14FF0FF304CE7002000F0AC
:1054D00051FB10B14FF0FF3045E7002000F042FDD6
:1054E000002040E738000020556E737570706F72B1
:1054F00074656420736F6674776172652070726F73
:1055000064756374207265762025642E0A0000009D
:10551000708D000848616C662073656E73697469EC
:1055200076697479207061727420666F756E642E6E
:105530000A0000002DE9F04385B005460E4690466E
:105540009946294890F8250020B14FF0FF3005B06A
:10555000BDE8F08316B94FF0FF30F8E7002423E0F0
:10556000281B102801DD102000E0281B87B232190B
:105570003946204600F05EFD10B14FF0FF30E6E7FF
:1055800001AA3946204600F001F910B14FF0FF3072
:10559000DDE730193A4601A9FAF729FE10B16FF09C
:1055A0000100D4E7E01984B2AC42D9DB4FEA2820ED
:1055B0008DF8000008F0FF008DF801000A4A12681B
:1055C000917E094A526810786B460222FCF7D9F89E
:1055D00010B14FF0FF30BAE70121034880F82510E1
:1055E000A0F826900020B2E73800002038B5044625
:1055F000282C02DD4FF0FF3038BDDCB9002000F070
:10560000EBFB00208DF8000007208DF801002E4AEA
:105610001268917C2C4A526810786B460222FCF783
:10562000B0F810B14FF0FF30E6E7002126480175D1
:105630000020E1E7012000F0CFFB20208DF80000E2
:10564000012C06D100208DF80100052000F0FAFBA6
:1056500017E0052C06DC01208DF80100052000F084
:10566000F1FB0EE0142C06DC02208DF801000A206C
:1056700000F0E8FB05E003208DF80100142000F0A5
:10568000E1FB9DF80100072101EB8010C0B28DF80D
:1056900001000D4A1268917C0B4A526810786B46E3
:1056A0000222FCF76EF810B14FF0FF30A4E708219A
:1056B0000548817200210173012101750020FFF767
:1056C000CDFB002098E7000038000020F8B5044624
:1056D0000F4616462C4890F8240010B94FF0FF30C2
:1056E000F8BD2948807A10B94FF0FF30F8E7264A14
:1056F0001268917A244A526810786B460222FBF7AE
:105700009AFF10B14FF0FF30EAE79DF801009DF8D5
:10571000001040EA0125A54203DA00203070401E47
:10572000DEE7194840684088B5EB600F17DD164A80
:105730001268517C144A526810786B460122FBF7BC
:105740007AFF10B14FF0FF30CAE79DF8000000F07B
:10575000100020B100F05AF86FF00100C0E7E2B28B
:10576000094B1B68D97A084B5B6818783B46FBF7F6
:1057700062FF10B14FF0FF30B2E795FBF4F0401E2E
:1057800030700020ACE7000038000020F8B5044677
:105790000D46164616B94FF0FF30F8BD1A48807A0C
:1057A00010B94FF0FF30F8E720128DF80000E0B29A
:1057B0008DF801009DF80100284413494968498982
:1057C000884202DD4FF0FF30E7E70F4A1268117E92
:1057D0000D4A526810786B460222FBF7D2FF10B1D7
:1057E0004FF0FF30D9E7EAB2074B1B68597D064BF3
:1057F0005B6818783346FBF71EFF10B14FF0FF309F
:10580000CBE70020C9E700003800002008B5704849
:10581000807A10B94FF0FF3008BD002000906C4A2C
:105820001268D17B6A4A526810786B460122FBF7F6
:10583000A8FF10B14FF0FF30EEE7654A12685179CA
:10584000634A526810786B460122FBF79AFF10B149
:105850004FF0FF30E0E75E4A126811795C4A526807
:1058600010786B460122FBF78CFF10B14FF0FF3030
:10587000D2E7574890F82400002853D00C2000901D
:10588000534A12681179524A526810786B460122C5
:10589000FBF777FF10B14FF0FF30BDE73220FEF786
:1058A00001F8C02000904A48807A00F0010020B141
:1058B0009DF8000040F020000090454A12681179E0
:1058C000434A526810786B460122FBF75AFF10B129
:1058D0004FF0FF30A0E73E48407C10B1022000901E
:1058E00001E0002000903A4A1268D17B384A5268A1
:1058F00010786B460122FBF744FF10B14FF0FF30E8
:105900008AE700200090324A12685179304A526882
:1059100010786B460122FBF734FF002855D04FF07A
:10592000FF3079E704200090294A12681179284A4B
:10593000526810786B460122FBF723FF10B14FF03D
:10594000FF3069E72248807C20B92148807A00F046
:10595000010010B94020009001E0602000901C4A36
:10596000126811791A4A526810786B460122FBF7C7
:1059700008FF10B14FF0FF304EE73220FDF792FFE5
:105980001348407C10B10120009001E000200090FD
:105990000F4A1268D17B0E4A526810786B4601227A
:1059A000FBF7EFFE10B14FF0FF3035E7084A126801
:1059B0005179074A52681078054B10330122FBF7E2
:1059C000E0FE10B14FF0FF3026E7002024E7000092
:1059D000380000202DE9F04F8DB083460F4602209D
:1059E0000C90424890F8240020B1002000F068F9A3
:1059F000012600E0002603A8FFF722FC05A8FFF718
:105A0000C7FB01A8FFF766FC02A8FFF78BFC37482D
:105A100090F80AA004A8FFF70BFC002407E000227E
:105A200039465846FEF7CCFD00B902E0641C022C52
:105A3000F5DB00BF022C01D1002528E0002407E09F
:105A4000012206A909A8FEF7BBFD00B902E0641C0B
:105A5000022CF5DB00BF022C01D1002517E006A9BE
:105A60003846FDF76FFB00F0FF0809A95846FEF71E
:105A7000DFFF00F0FF090025B9F1000F01D145F06B
:105A80000105B8F1000F01D145F0020500BFFF206C
:105A900016490872FF2115484172C1724FF6FF7115
:105AA000C181FF218172017401210173BDF80C00D5
:105AB00000F04EF99DF8140000F01AF8BDF804004B
:105AC00000F0C0F9BDF8080000F0FEF9504600F003
:105AD00049FA9DF81000FFF7C1F916B1012000F056
